:020000040800F2
:1000000000040020D9030008DB030008DB0300081C
:10001000DB030008DB030008DB030008DB03000848
:10002000DB030008DB030008DB0300084154000881
:10003000DB030008DB030008DB030008DB03000828
:10004000DB030008DB030008DB030008DB03000818
:10005000DB030008DB030008B13600084137000865
:10006000D137000861380008F1380008313E000837
:10007000C13E0008513F0008E13F00087140000800
:100080000141000891410008DB030008DB03000880
:10009000DB030008DB030008DB03000881390008EC
:1000A000DB030008DB030008DB030008DB030008B8
:1000B000113C0008DB030008DB030008DB03000839
:1000C000DB030008DB030008DB030008DB03000898
:1000D000DB030008113B0008DB030008DB0300081A
:1000E000413A0008DB030008DB030008DB030008DB
:1000F000DB030008DB030008DB03000821420008E3
:10010000DB030008DB030008713D0008DB03000887
:10011000DB030008DB030008DB030008DB03000847
:10012000B142000841430008D1430008614400087F
:10013000F1440008DB030008DB030008DB030008D0
:10014000DB030008DB030008DB030008DB03000817
:100150008145000811460008A1460008DB0300089D
:10016000DB030008DB030008DB030008DB030008F7
:10017000DB03000831470008DB030008DB0300084D
:10018000DB030008DB030008DB030008DB030008D7
:10019000DB030008DB030008DB030008DB030008C7
:1001A000DB030008DB030008DB030008DB030008B7
:1001B000DB030008DB030008DB030008DB030008A7
:1001C000DB030008DB030008DB030008DB03000897
:1001D000DB030008DB030008DB030008DB03000887
:1001E000DB030008DB030008DB030008DB03000877
:1001F000DB030008DB030008DB030008DB03000867
:10020000DB030008DB030008DB030008DB03000856
:10021000DB030008DB030008DB030008DB03000846
:10022000DB030008DB030008DB030008DB03000836
:10023000DB030008DB030008DB030008DB03000826
:10024000DB030008DB030008DB030008DB03000816
:10025000DB030008DB030008DB030008DB03000806
:10026000DB030008DB030008DB030008DB030008F6
:10027000DB030008DB030008DB030008DB030008E6
:10028000DB030008DB030008DB030008DB030008D6
:10029000DB030008DB030008DB030008DB030008C6
:1002A000DB030008DB030008DB030008DB030008B6
:1002B000DB030008DB030008DB030008DB030008A6
:1002C000DB030008DB030008DB030008DB03000896
:1002D000DB030008DB030008DB030008DB03000886
:1003000072B6264880F30888254880F30988254876
:1003100025490860022080F31488BFF36F8F03F033
:1003200047F904F07DFC4FF0553020491B4A9142BB
:100330003CBF41F8040BFAE71D49194A91423CBF02
:1003400041F8040BFAE71B491B4A1C4B9A423EBF7B
:1003500051F8040B42F8040BF8E700201849194A39
:1003600091423CBF41F8040BFAE703F071F903F046
:100370005FF9154C154DAC4203DA54F8041B88475D
:10038000F9E705F06DF8124C124DAC4203DA54F85F
:10039000041B8847F9E703F053B90000000400206C
:1003A000000800200000000808ED00E00000002028
:1003B00000040020E876000800000024500100241A
:1003C00020620024E8770024E0020008E002000830
:1003D000E0020008E002000892E700F000F8FEE703
:1003E0002DE9F04FC1F80CD0D0F80CD0BDE8F08F5B
:1003F000002383F311882846A047002005F018F851
:10040000FEE704F0D5FD00DFFEE70000000000007D
:1004100000000000000000000000000000000000DC
:1004200002780B78012A28BF9A4240F0D8806DE903
:10043000044540EA0104CDE902676FF0000C4FEA81
:1004400044721AB380EA010414F0070F6BD100F074
:10045000070420F0070004F0030521F007014FEA2C
:10046000C505F0E8042314F0040FF1E804670CFA62
:1004700005F462EA040266EA04060BD063EA0403A8
:10048000624667EA0407664604E000BFF0E804231A
:10049000F1E8046782FA4CF582EA0604A4FA8CF4C7
:1004A0006CBB83FA4CF583EA0705A5FA8CF595B980
:1004B00050E9022351E9026782FA4CF582EA060408
:1004C000A4FA8CF483FA4CF583EA0705A5FA8CF5B7
:1004D0002543DBD09CB92DBAB5FA85F424F0070486
:1004E00027FA04F1DDE9026723FA04F303F0FF00C1
:1004F00001F0FF01FDE80445A0EB0100704724BABC
:10050000B4FA84F424F0070426FA04F1DDE9026762
:1005100022FA04F202F0FF0001F0FF01FDE80445B9
:10052000A0EB0100704714F0030F3CD110F003045E
:1005300028D150F8082B51F8083B82FA4CF582EA92
:100540000305A5FA8CF55DB950F8042C51F8043C6C
:1005500082FA4CF582EA0305A5FA8CF5002DE8D065
:100560002DBAB5FA85F424F0070423FA04F122FA2F
:1005700004F202F0FF0001F0FF01FDE80445A0EBEA
:10058000010070474FEAC40420F0030050F8082B24
:1005900021F0030151F8083B0CFA04F462EA04026A
:1005A00063EA0403C9E710F003041DD0A1EB0401C2
:1005B00020F00300E40750F8042B06D012D28B7809
:1005C0005FFAA2F4E41A06D12BB1CB785FFAB2F449
:1005D000E41A00D133B920465DF8104B7047A2EB06
:1005E0000300704701F1040150F8042BCC0721F0FF
:1005F000030151F8043B48D824D222F07F4482FA08
:100600004CF594EA1325A5FA8CF50AD165B951F891
:10061000043B84EA0204B4EB036F0ED150F8042BC0
:10062000EBE74FEA132355E035F07F454DD10878CD
:10063000FDE80445C0F1000070474FEA126203F084
:10064000FF0347E002EA1C4482FA4CF594EA1345A2
:10065000A5FA8CF50AD165B951F8043B84EA020485
:10066000B4EB034F0CD150F8042BEBE74FEA1343E4
:1006700030E015EA1C4528D10B884FEA124229E0E8
:100680004FEA124203EA1C4324E002F0FF0482FA1C
:100690004CF594EA1365A5FA8CF50AD165B951F8C1
:1006A000043B84EA0204B4EB032F09D150F8042B75
:1006B000EBE74FEA13630DE015F0FF0F05D10B6870
:1006C0004FEA122223F07F4304E04FF00000FDE8E0
:1006D0000445704712BA1BBA82FA4CF482EA03044A
:1006E000A4FA8CF5B5FA85F402FA04F203FA04F3DD
:1006F0004FEA1260FDE80445A0EB1360704700BFAD
:10070000844641EA000313F003036DD1403A41D31C
:1007100051F8043B40F8043B51F8043B40F8043BDB
:1007200051F8043B40F8043B51F8043B40F8043BCB
:1007300051F8043B40F8043B51F8043B40F8043BBB
:1007400051F8043B40F8043B51F8043B40F8043BAB
:1007500051F8043B40F8043B51F8043B40F8043B9B
:1007600051F8043B40F8043B51F8043B40F8043B8B
:1007700051F8043B40F8043B51F8043B40F8043B7B
:1007800051F8043B40F8043B51F8043B40F8043B6B
:10079000403ABDD2303211D351F8043B40F8043B0B
:1007A00051F8043B40F8043B51F8043B40F8043B4B
:1007B00051F8043B40F8043B103AEDD20C3205D31B
:1007C00051F8043B40F8043B043AF9D2043208D013
:1007D000D2071CBF11F8013B00F8013B01D30B8885
:1007E00003806046704700BF082A13D38B078DD063
:1007F00010F003038AD0C3F10403D21ADB071CBF35
:1008000011F8013B00F8013B80D331F8023B20F89E
:10081000023B7BE7043AD9D3013A11F8013B00F8D7
:10082000013BF9D20B7803704B7843708B7883705F
:10083000604670470000000000000000000000005B
:1008400030B490F800F020F007016FF0000C10F0C9
:10085000070491F820F040F048804FF000046FF05A
:100860000700D1E9002391F840F000F1080082FA76
:100870004CF2A4FA8CF283FA4CF3A2FA8CF34BBB41
:10088000D1E9022382FA4CF200F10800A4FA8CF2BA
:1008900083FA4CF3A2FA8CF3E3B9D1E9042382FA88
:1008A0004CF200F10800A4FA8CF283FA4CF3A2FA9D
:1008B0008CF37BB9D1E9062301F1200182FA4CF2D5
:1008C00000F10800A4FA8CF283FA4CF3A2FA8CF33C
:1008D000002BC6D0002A04BF04301A4612BAB2FA5E
:1008E00082F200EBD20030BC7047D1E9002304F063
:1008F0000305C4F100004FEAC50514F0040F91F898
:1009000040F00CFA05F562EA05021CBF63EA050334
:1009100062464FF00004AAE700000000000000005B
:1009200090F8803003F06003202B01D00020704746
:1009300090F88130212B09D81F2BF7D907490722BE
:100940000023C0E91D12C36701207047222BEDD19F
:100950000023C0E91D33C367F6E700BF040000248D
:10096000704700BF00000000000000000000000011
:1009700000EB8103DA68936910B41C68402CDC60DA
:1009800000D929B3538A1268D0F8900002F0030C02
:100990005A1E2244BCF1010FB2FBF3F202FB03F337
:1009A00003F1030323F0030343EAC24300EB4112C4
:1009B00043F0C043C2F8103B0DD009B200EB411028
:1009C00010BCD0F8003B43F00443C0F8003B704734
:1009D00040241C60D6E7D0F8083800EB411209B279
:1009E00013F4807FD2F8003B14BF43F0805343F0F0
:1009F0000053C2F8003BE1E70000000000000000E7
:100A000000EB8103D0F89020D86810B544692368C2
:100A1000E360DBB902EB41134FF40024C3F8104943
:100A2000036803F00303012B27D008B202EB401048
:100A30000123D0F800498B4044F00444C0F8004939
:100A4000D2F834180B43C2F8343810BD402B00D90B
:100A500021B3B0F810E002EB411C0EF1FF341C444E
:100A6000B4FBFEF443EAC44343F00053CCF810391E
:100A7000036803F00303012BD7D1D2F8083808B27A
:100A800013F4807F02EB4113D3F8004914BF44F004
:100A9000805444F00054C3F80049C7E74023236062
:100AA000D7E700BF000000000000000000000000C9
:100AB000FEE700BF00000000000000000000000092
:100AC00070B5D0E9023445684FF0020E1B4A4FF072
:100AD000010C43F8285C00210569194E43F86C5C51
:100AE000456943F84C6C43F8685C0568A3F138002D
:100AF00023F824EC03F822CC43F8404C43F8084C8C
:100B0000D46A43F82C5CA3F16C0543F8344C43F8E9
:100B10003C5C02F1280543F8302C43F8385C43E98B
:100B200004112060A3F11801A3F11C04D062A3F109
:100B3000480043F8141C43E9074170BD206E0024AF
:100B4000F1030008000000000000000000000000A9
:100B5000014B5B6883607047001000E000000000FC
:100B60000E4A0F4B81685B6810B4946802691B1BC6
:100B7000C4685B1A41690134D218026141F1000175
:100B8000426841619342026888BF43609342C0E972
:100B9000023438BF036010BC704700BF306C0024C3
:100BA000001000E000000000000000000000000055
:100BB000064B49425A68101A08401968884203D304
:100BC000824201D35860704700207047286C00248F
:100BD000302383F311880D4B5B6813F4006302D15B
:100BE00083F311887047EFF309834FF08072203B45
:100BF000DA6183F30988064A1168D26889689268C5
:100C000091428CBF034A044A9A61704700ED00E0AC
:100C1000206E002403040008060400080000000001
:100C200002290CD0032904D00129074818BF00204D
:100C30007047032A05D8054800EBC20070470448F6
:100C400070470020704700BF10710008187100083D
:100C50000871000800000000000000000000000013
:100C6000024A137883F001031370704700000024D8
:100C70002DE9F041244F0446D7F8906006EB40136D
:100C8000D3F8085B2807C3F8085B03D5D6F81438F7
:100C9000190731D4EA072DD5D6F81438DB0729D542
:100CA00007EB8403D9688A6954B9488A5368B3FB4F
:100CB000F0F500FB15331BB91068D36898420DD3CB
:100CC00001227B89CD68A24023EA02037B818DB19A
:100CD00021462B460C48BDE8F04118471B1A5460CA
:100CE0003021136081F3118807482146FFF740FE49
:100CF00084F31188BDE8F08107EB84032146384670
:100D0000DB685B689847C5E73C6C00240000000086
:100D10000C4A4FF080410C48D2F88C3002F5096C37
:100D200010B44C6A19685C60406860F31F2102F1DE
:100D3000900043F8101B634528BF0346C2F88C306F
:100D400010BC7047206E0024001000E0000000007E
:100D5000044608B572B6094DB5F888301B0705D5AD
:100D6000074B0322C5F884401A70FEE7D5F88C3093
:100D7000052298601A70FFF7CBFFF1E7206E002480
:100D8000306C0024000000000000000000000000A3
:100D900009B100207047024808B5FFF7D9FF00BF2E
:100DA000D8740008000000000000000000000000EF
:100DB00070B400224FF0FF348E6800EB421102F154
:100DC000010CD1F800590B46002D05DAD1F8005975
:100DD00045F08045C1F80059D1F8005B002D05DAD7
:100DE000D1F8005B45F08045C1F8005B9642C3F83E
:100DF00008496246C3F8084BDFD14FF0011370BCBD
:100E0000C0F81C38704700BF000000000000000060
:100E1000C36893B1D0F81CC0C268D0E90531013A6B
:100E20006344C2608B42436101D3436A4361002241
:100E3000036B826203B118477047024810B5FFF791
:100E400087FF00BF287500080000000000000000B8
:100E5000C36810B5A3B1036984691960C169C26828
:100E60000B44013AA3420361C26001D3436A0361A8
:100E70000022036B826213B1BDE81040184710BD19
:100E80000148FFF765FF00BFEC7400080000000098
:100E900008B5084B1A689A4203D1002383F31188DE
:100EA00008BDD96893688A689A42F6D20248FFF76B
:100EB0004FFF00BF206E0024E07400080000000017
:100EC000D0F88C2413681978042900D07047017A6F
:100ED0000229FBD1B3F80AC010B5517901228A402A
:100EE00012EA0C0F1FFA82FE00D010BDD0E90724D1
:100EF000A24213D003EB81004CEA0E0C0432C4680A
:100F00001846A3F80AC0A3694FF480749A600022BF
:100F1000C3E90042BDE81040FFF72ABD8069002800
:100F2000E8D0E2E700000000000000000000000040
:100F3000436BD3F88C2410680178042900D07047E3
:100F4000197A0229FBD1B0F80AC010B551790122F3
:100F50008A4012EA0C0F1FFA82FE00D010BDD3E9BE
:100F60000724A24212D000EB81034CEA0E0C04329B
:100F70004FF48074DB68A0F80AC09B699A60002275
:100F8000C3E90042BDE81040FFF7F2BC9B69002BAB
:100F9000E9D0E3E7000000000000000000000000CE
:100FA000436BD3F88C2410680178042900D0704773
:100FB000197A0229FBD1B0F808C010B511790122C5
:100FC0008A4012EA0C0F1FFA82FE00D010BDD3E94E
:100FD0001542944212D000EB810413464CEA0E0CE9
:100FE000E26853F8044B5269A0F808C093600023EC
:100FF000C2E90043BDE81040FFF702BD1B6D002BA6
:10100000E9D00148FFF7A4FEB87400080000000012
:1010100038B590F870300446063B052B04D8DFE85D
:1010200003F033030306132C3248FFF791FE836F5E
:10103000B0F88620934207D2C268128AB3FBF2F15D
:1010400002FB1133002B36D01422302384F8702099
:1010500083F31188638913F0010544D1E26843F0FA
:10106000010329462046926963819560C2E90055D3
:10107000FFF77EFC85F3118838BDC36F03B1984735
:10108000002384F8703038BDD0F890304168D3F830
:1010900000290D6842F40012C3F80029D3F8002B90
:1010A00042F40012C3F8002B0DB10621A847062315
:1010B00084F8703038BD302383F31188038913F02E
:1010C000010513D1C26843F0010329465269038127
:1010D0009560C2E90055FFF793FC85F311880A2358
:1010E00084F8703038BD0448FFF732FE0348FFF73C
:1010F0002FFE00BF10740008C4740008A474000818
:1011000038B590F870100446142934D015291AD037
:10111000062902D01F48FFF71BFED0F89030D3F805
:10112000002942F40012C3F80029D3F8002B42F43E
:101130000012C3F8002B43681B6803B198470623CD
:1011400084F8703038BD0B22302380F8702083F390
:101150001188038913F0010519D1C26843F0010316
:101160002946526903819560C2E90055FFF748FCA2
:1011700085F3118838BDC3689B695B68002BE1D19A
:10118000C36F03B19847002384F8703038BD02481C
:10119000FFF7DEFD04740008A474000800000000DE
:1011A0004FF080430229DA6838BF0221920710B558
:1011B00000EB010419D55C635A6A101A814200D908
:1011C00010BD0221D8680131800701EB02040CD563
:1011D0005C63586A821A8A420AD20229F0D9054A07
:1011E000536B43F00103536310BD0348FFF7B0FD99
:1011F0000246E7E7206E0024747200080000000039
:1012000010B590F824301BB30F2B21D0124A04469E
:10121000B2F88810C9070FD50022A369A16884F825
:1012200024201B689A688A42FBD85A6820462360AB
:10123000626014605C6010BDDB00816AD2F88C20B3
:1012400043F00103C2E902011370FFF761FDE3E718
:101250000248FFF77DFD00BF206E00246072000889
:10126000302310B583F31188104B49425C68201A73
:1012700008401968821A8A420AD3944208D35A60F5
:101280000B4B1A689A4208D1002383F3118810BDD2
:10129000074B00201A689A42F6D0D96893688A688A
:1012A0009A42F1D20348FFF753FD00BF286C002497
:1012B000206E0024B0710008000000000000000053
:1012C00038B5302383F31188254BD3F88C2410686C
:1012D0000178042902D1197A022903D0002383F36B
:1012E000118838BD11790122B0F808C08A4012EA8D
:1012F0000C0F1FFA82FEF1D1D3E915429442EDD1D1
:101300001C6D002CEAD0DC6E002CE7D0043CA41A43
:10131000E4D014601C6D1D6E013C15441C65DC6D31
:101320005D65A54201D39D6E5D650024AA42DC6621
:1013300010D000EB810352F8044B4CEA0E0CDB6832
:101340005B69A0F808C09A600022C3E90042FFF779
:1013500057FBC3E71B6D002BEBD00248FFF7F8FCEF
:1013600078670024B470000800000000000000004E
:101370002DE9F843424E05464FEA4019D6F89070E1
:1013800007EB4013D3F80849E107C3F8084903D530
:10139000D7F81038DA070CD4230608D54FF0010E21
:1013A000D7F834380EFA05FE13EA0E0F18D1BDE84F
:1013B000F88306EB8003D9684B691868DA689042B5
:1013C0004AD301223389D1F80880AA4023EA0203D4
:1013D0003381B8F1000FDFD029463046C047DBE744
:1013E00006EB8503D6F89080D9684E69D6E90034BB
:1013F0009C422AD26A1C0F8A08EB090CD2B208EB75
:1014000002321B1BBB4228BF3B461C46DCF8183986
:101410009BB2B4EB830FCAD8B5686CB32B68042CAD
:1014200013600AD9601F2B4620F0030004302844C3
:1014300053F8041F83421160FAD1736825441C4499
:101440003368B560A3427460DBD8D8F8343823EA37
:101450000E03C8F83438AAE7121A4FF000081A60D1
:10146000C3F80480302383F3118829463046FFF700
:10147000C7FA88F311888FE70248FFF769FC00BFBD
:101480003C6C0024FC6D000800000000000000001F
:1014900038B51B4C022A04F11003E161826038BFA9
:1014A0000222436023698D18036058604FF0804327
:1014B0002061D86810F002001CD15D631861022021
:1014C000D8605D6AA5EB010C624502D938BD29469A
:1014D0001546DA680130920701440ED559635A6AFD
:1014E000511B8142F3D20228F0D9636B43F0010310
:1014F000636338BD0348FFF72BFC0348FFF728FC64
:10150000206E0024EC6D00087472000800000000DA
:1015100010B590F8243013B30F2B20D0114A044695
:10152000B2F88810C9070ED50022A369A16884F813
:1015300024201B689A688A42FBD25A68C4E90032A8
:1015400014605C6010BDDB00816AD2F88C2043F02F
:101550000103C2E902011370FFF7DAFBE4E7024876
:10156000FFF7F6FB206E0024D86D00080000000095
:1015700008B5302383F3118891F824300C2B10D850
:10158000DFE803F0150F0F190B070F0B0F0F0F0FED
:101590000B008A6A936801339360D1E900321360CB
:1015A0005A604FF0FF3308468B62FFF7B1FF00230C
:1015B00083F3118808BD8B6A00221A60F1E700BF2F
:1015C000F8B50468A0422CD007460D4600260DE071
:1015D000D4E90103816B90F824200B430A2A83632A
:1015E00016D00B2A1ED02468A7421AD0E3682B43DA
:1015F000E360002DECD023691D42E9D12468BC4290
:101600000FD0E3682B43E36023691D42E0D1F5E787
:10161000826A1342E7D08662FFF77AFF2468A74206
:10162000E4D1F8BD826A9A43DDD1F4E700000000FE
:10163000F8B501F10B0350F823404CB30E460546B4
:10164000302383F3118805EB86070821201DFFF75F
:10165000B7FFFB685B691B68DBB9636DA26D9342E2
:1016600037D001232989B34098B20B4055D141EAC4
:101670000004314652F8046B28462C81FC686469EA
:10168000A260C4E90063FFF7BBF9002383F311886C
:10169000F8BDD4E91532934239D0216D013121656D
:1016A000216E0A44E16D8A42A26501D3A26EA26551
:1016B00004F14402606C8242D0D0036863645A60D3
:1016C00090F82430042B2BD100238362FFF720FFF6
:1016D000C3E7236D002BC4D0FA6854692368002B3C
:1016E000D3D0128A013A1A42CFD101232A8905F1B7
:1016F0008007B34099B213400FD10A4328463146C0
:101700002A81A760C4E90033FFF77AF9BDE7216DAC
:101710000029C2D00448FFF71BFB0448FFF718FB61
:101720000348FFF715FB00BF8C740008A474000881
:1017300078740008000000000000000000000000B5
:10174000133138B550F8214094B1302383F3118818
:10175000D4F88C241368527903EB8203DB689B690D
:101760005D6835B92046FFF7ABFB002383F3118892
:1017700038BD04216018FFF723FFD4E907329342F4
:101780001CD01D60A269D4E9091001320344A26192
:101790008B42E36101D3236BE36104F10C03E06846
:1017A0008342DFD00268E260536090F82430042B5B
:1017B0000AD100238362FFF7ABFED3E7A269002AB8
:1017C000DFD00348FFF7C4FA0248FFF7C1FA00BFB1
:1017D0006474000878740008000000000000000035
:1017E0002DE9F0410468844221D005466FF00107DD
:1017F000164E4FF0000823682B605D6094F824308B
:10180000042B1FD1B6F88830A762DB0711D5A36976
:10181000A16884F824801B689A688A42FBD25A68BF
:10182000C4E9003214605C602C68AC42E3D1BDE8CE
:10183000F081D6F88C302122C3E902471A70FFF7F5
:1018400067FAE4E70248FFF783FA00BF206E00243E
:101850007874000800000000000000000000000094
:1018600070B590F87030044613B1002380F87030E2
:1018700004EB81016268CB681B6A19685B68C4F875
:101880008010C4F88430936863B32046984748B307
:10189000A16F94F88030B4F886208A422CBF0A46A3
:1018A000A26719065DD4002A00F0A9801522302312
:1018B00084F8702083F31188638913F00105D4E95B
:1018C0001D1240F0548143F0010320466381E36818
:1018D0009B6999602946C3E90025FFF749F885F31C
:1018E000118870BD94F8803013F06005184620D13F
:1018F00094F8811003F07F0242EA012240F20231A3
:101900008A4200F0378100F29480B2F5807F00F0C7
:101910001B8143D8012A00F02881022A00F0C680EA
:101920003AB904F1880202210020C4E91D21E067D0
:10193000B1E7D4F89020D2F80039616843F400137D
:101940000D68C2F80039D2F8003B43F40013C2F826
:10195000003B15B106212046A847062384F87030C5
:1019600070BD92B30922302384F8702083F311886C
:10197000238913F00105D4E91D1240F01B8143F0C7
:10198000010320462381E3685B6999602946C3E926
:101990000025FFF735F885F3118870BDB2F5817F1A
:1019A00000F0BA80B2F5407FC3D194F88230012BA9
:1019B000BFD1B4F8883043F00203A4F88830002384
:1019C000C4E91D33E367030619D51422302384F8D4
:1019D000702083F31188638913F0010540F0C780FC
:1019E000E26843F0010329462046926963819560CD
:1019F000C2E90055FEF7BCFF85F3118870BD0B22CC
:101A0000302384F8702083F31188238913F00105B3
:101A100040F0D080E26843F0010329462046526935
:101A200023819560C2E90055FEF7EAFF85F311882E
:101A300070BDB2F5006F00F0B5801CD8B2F5A06F94
:101A40004BD0A2F5C062012A3FF673AF6168204611
:101A5000B4F884304E6894F8822094F88310B0472C
:101A600000283FF466AF94F88030D0E90012E567B3
:101A7000C4E91D210FE7B2F5106F71D12378042B53
:101A800000F0A28094F882304BB10421626884F89F
:101A90008B302170136813B1022120469847002330
:101AA00094F88000C4E91D33E3678CE794F984005F
:101AB00094F884100028D4F8902001F00F017CDB0A
:101AC00058314901515808047FF535AF594811F490
:101AD000001F594A08BF024625E7B4F88030B3F525
:101AE000A06F7FF46CAF94F88210D4F8902084F843
:101AF0008A10D2F8003823F4FE6343EA01136168C8
:101B00000D68C2F8003825B120460121A84794F895
:101B100080000323237052E794F88230002B7FF477
:101B200008AF94F8843013F00F013FF448AFD4F8B5
:101B300090201E0602EB411272D4D2F8003B23F42F
:101B40000013C2F8003B3AE794F88230012B7FF48F
:101B5000F0AEB4F8883023F00203A4F888302EE702
:101B600040F602418A427FF4E4AE344ADBE6344870
:101B7000FFF7EEF894F88230002B7FF4DAAE94F899
:101B8000843013F00F013FF41AAFD4F890201D06F3
:101B900002EB41123DD4D2F8003B43F40013C2F8EB
:101BA000003B0CE7012204F18B00E5671146C4E914
:101BB0001D0270E62348FFF7CBF848314901515820
:101BC0000D047FF5B8AE81E7302383F311882378C5
:101BD000042B2CD1A3682022294604F1100003F025
:101BE0000113A36004F024FBD4E924010B68C4F8BA
:101BF0009830FFF7DDF885F311880321636884F8D6
:101C00008B5021701B68002B3FF43CAF2046984757
:101C100038E7D2F8003943F40013C2F80039CEE6B1
:101C2000D2F8003923F40013C2F80039C7E6064899
:101C3000FFF78EF834740008387400083C7400080C
:101C4000C4740008A47400081C740008000000009C
:101C5000F8B50378042B40F0B18000EB81040FFA53
:101C600081FCE368002B40F0A9805569E2601DB15A
:101C70002B606B60AB60EB60936923B100221A604C
:101C80005A609A60DA60E3680026D0F890201C68F9
:101C90009F6904F00304651E022D4B4D98BF05EBB0
:101CA000844502EB4114C4F8106B01F110040126C5
:101CB00006FA04FE4C01002F46D05F8A01F1580657
:101CC000144476012F439751D2F81C6846EA0E0659
:101CD000C2F81C680026C4F810695C69002C48D062
:101CE0009C8BB3F810C0012C4FEA9C0388BF634360
:101CF000D0E9254667689C191B04BC42C0F898408F
:101D00005FD801F13F00334302EB800043608B0159
:101D100043F02003136113699806FCD42B484468F0
:101D200043681B1B112BFBD94CEA815C01F1480075
:101D3000012340014CEA05058B401550D2F81C08E0
:101D40000343C2F81C38F8BD02EB4C171444D7F813
:101D5000006B26F40046C7F8006BD2F81C6826EA30
:101D60000E06C2F81C680026C4F810695C69002CD5
:101D7000B6D101F13F03164802EB830358608B0193
:101D800043F02003136113699B06FCD40F48446899
:101D900043681B1B112BFBD902EB4C1C0123DCF805
:101DA000000903FA01F120F40040CCF80009D2F850
:101DB0001C3823EA0103C2F81C38F8BD0548FEF7B9
:101DC000C7FF0548FEF7C4FF00800010001000E0C8
:101DD0000004000250740008407400080000000075
:101DE00038B505291ED8DFE801F0031D2D03031EB9
:101DF000302383F311882C4C237D13B194F84C309D
:101E00006BB9022129480125FFF7DAFB284825751F
:101E1000FFF7E6FC274884F84C50FFF7E1FC00236D
:101E200083F3118838BD302383F3118801211F48C3
:101E3000FFF7C6FB1C4A0023137582F84C3083F36E
:101E4000118838BD0446302383F311881A4A0121D2
:101E5000FFF7FEFE2046144C0221184A0025FFF72A
:101E6000F7FE236B04F10C00A5616563A563C4E96B
:101E70000733FFF7B5FC04F144002575D4E91923B5
:101E8000C4E91B552265C4E91533FFF7A9FC0121FC
:101E9000201D84F84C50FFF793FB2046FFF710F805
:101EA00085F3118838BD00BF786700247C67002463
:101EB00084670024BC670024E4700008C070000838
:101EC0002DE9F843D0E9024506460F46AC425BD007
:101ED00023460021D0E900E01EF803C001310CF1D7
:101EE000010C63449842D8BF1B1AAB42F4D1012ABB
:101EF000D6F810E040D0714556DBAC42D6F80090E1
:101F000015D0013971451ED0D6F80480002001E0BB
:101F1000F44518D019F8043001300133A1EB000C5E
:101F20001C44A045D8BFA4EB0804AC42F0D119F87A
:101F300005406CB9012A37D10EF101033361002449
:101F40002046BDE8F883254619F80540002CF1D05D
:101F50000EF10103402200213846336104F068F994
:101F600073686219691C9A4210DA3368224638464F
:101F70001944FEF7C5FBE3E7BEF1000FDFDDAEF16C
:101F8000020EC6F810E0B6E70021B0E75B1B38464A
:101F90005D1E33682A461944FEF7B2FB621B3168A6
:101FA0007819FEF7ADFBCBE74FF0FF34C8E700BF71
:101FB0001B4A38B55368D468996801292DD19C42D1
:101FC00028D0A369934225D11D6884F824002A688B
:101FD000536085F82410B3F888101A608A07DD6012
:101FE00005D521462846BDE83840FEF7F9B994F8F2
:101FF0002420D3F88C10D300A06A43F00203C1E977
:1020000002500B70FEF784FE21462846BDE838409A
:10201000FEF7E6B90348FEF79BFE0348FEF798FE7D
:10202000206E0024507200083C720008000000007E
:102030002DE9F0474B1C3C4E86B0D6F80C9025D0CD
:10204000B0463A4B07460A4658F8105F0393002300
:102050004545CDF8109005934FF08043586A58D00D
:10206000F469AB68041B0C1928BF0C46A34235D891
:102070009C42EA4605D810E02D68E41AAB689C4201
:102080000BD95545F8D12A48FEF762FEFFF790FFBD
:10209000D9F8280006B0BDE8F0870294AB686A68FA
:1020A0001B1B00950192C2F800A0C5E901A34FF0E7
:1020B000FF33B3613846FFF77BFF009B002BE7D06F
:1020C000326952450ED09A68DDE9011002440B6076
:1020D000C3E901124FF0FF33B361D9E7FFF760F8AE
:1020E000AB68C5E70022434533610092C3F8048022
:1020F00015D09A680298F16902444FF080409A60C6
:10210000406A431A9A42C3D9091A1144FFF748F8A2
:10211000BEE7EA4601465046FFF7BAF9CAE74FF074
:102120008043DA60B4E700BF206E00247115000818
:102130007C730008000000000000000000000000A8
:10214000C36870B50446BBB9037A13BB144E0D4681
:10215000F36819B91AE0237ADBB9F3686268294693
:102160001C6004205A6013606360FFF761FF002861
:102170000BDBE368002BEED0E3686BB12369002032
:10218000E1691A1D0B44C4E90A2370BD4FF0FF300A
:1021900070BD6FF0010070BD0248FEF7D9FD00BFB1
:1021A000206E002400750008000000000000000000
:1021B0002DE9F04F83B005460C4617464FF0300826
:1021C000019388F311880026A86ADFF8DCB0B146D5
:1021D000A0B3EA6ABB1B121A9A4228BF1A46402AC9
:1021E000924632D9214604F1400ED1F800C0103198
:1021F00051F80C4C103051F8082C51F8043C714542
:1022000040F810CC40F80C4C40F8082C40F8043C46
:10221000EBD1AB6A0C46EA6A403640339A42AB6275
:102220001ED9DBF800305B4523D189F31188BE420B
:102230002FD288F31188A86A0028CAD101992846AC
:10224000FFF77EFFF0B9A86AC3E721465644FEF7C0
:1022500057FAAB6AEA6A544453449A42AB62E0D8F4
:10226000E96928460439FEF7F3FDDBF800305B45E9
:10227000DBD0DBF80C209B6892689A42D5D20B48E1
:10228000FEF766FDDBF800305B4506D1002383F3E3
:102290001188304603B0BDE8F08FDBF80C209B6856
:1022A00092689A42F2D2EAE7206E00241C75000878
:1022B0004FF0FF334430FFF77BBF00BF000000004A
:1022C0004430FFF775BF00BF0000000000000000B1
:1022D00070B5302304460D4600F1440683F311889F
:1022E000C36EA3B11D70D4E91B3201339342E36680
:1022F00007D2164B1A689A4211D1002080F3118838
:1023000070BD216E30460439FEF7A2FDF1E74FF0B3
:10231000FF313046FFF714FF48B9E36EE2E7D968B2
:1023200093688A689A42E8D20948FEF711FD074B84
:102330001A689A4203D1002383F3118870BDD968CB
:1023400093688A689A42F6D2EEE700BF206E0024B6
:102350001C750008000000000000000000000000E4
:1023600070B5302304460D4600F1440683F311880E
:10237000C36EA3B11D70D4E91B3201339342E366EF
:1023800007D2154B1A689A4210D1002080F31188A9
:1023900070BD216E30460439FEF75AFDF1E7114653
:1023A0003046FFF7CDFE48B9E36EE3E7D96893689E
:1023B0008A689A42E9D20948FEF7CAFC064B1A68B5
:1023C0009A4203D1002383F3118870BDD9689368C2
:1023D0008A689A42F6D2EEE7206E00241C75000847
:1023E000C36870B50446BBB9037A13BB144E0D46DF
:1023F000F36819B91AE0237ADBB9F36862682946F1
:102400001C6004205A6013606360FFF711FE00280F
:102410000BDBE368002BEED0E3686BB1636900204F
:102420001A1D1B681344C4E90A2370BD4FF0FF3026
:1024300070BD6FF0010070BD0248FEF789FC00BF5F
:10244000206E00244075000800000000000000001D
:102450002DE9F04F83B004460E4617464FF0300882
:10246000019388F311880025A16ADFF8DCA0A94652
:10247000A9B3E26A7B1BA2EB010B9B4528BF9B46DD
:10248000BBF1400F32D9334601F1400BD1F800E0E7
:10249000103151F80CCC103351F8080C51F8042CC1
:1024A000594543F810EC43F80CCC43F8080C43F8BA
:1024B000042CEBD1A36A4036E26A403540339A429D
:1024C000A3621FD9DAF80030534522D189F311886D
:1024D000BD422ED288F31188A16A0029C9D1019981
:1024E0002046FFF77DFFE8B9A16AC2E75A463046A9
:1024F000FEF706F9A36AE26A5E445B445D449A42D1
:10250000A362DFD82046FEF783FCDAF8003053459B
:10251000DCD0DAF80C209B6892689A42D6D20B483D
:10252000FEF716FCDAF80030534506D1002383F39A
:102530001188284603B0BDE8F08FDAF80C209B68BC
:1025400092689A42F2D2EAE7206E00241C750008D5
:102550004FF0FF330C30FFF77BBF00BF00000000DF
:102560000C30FFF775BF00BF000000000000000046
:1025700070B53023044600F10C0683F31188436BD9
:10258000EBB113F8015BA26B6363934208D2104B6B
:102590001A689A420BD1002383F31188284670BD34
:1025A0003046FEF735FC0A4B1A689A42F3D0D968D8
:1025B00093688A689A42EED20648FEF7C9FB304615
:1025C000FFF70EFF05460028E1D1636BD9E700BF96
:1025D000206E00241C7500080000000000000000B0
:1025E00070B53023044600F10C0683F31188436B69
:1025F000EBB113F8015BA26B6363934208D2114BFA
:102600001A689A420BD1002383F31188284670BDC3
:102610003046FEF7FDFB0B4B1A689A42F3D0D9689F
:1026200093688A689A42EED20748FEF791FB4FF012
:10263000FF313046FFF7D4FE05460028DFD1636B3B
:10264000D7E700BF206E00241C75000800000000C2
:10265000154C4FF08008154A3026E368144D80B5BC
:10266000DA61144FA5F8188010E06B6983F08003DD
:102670006B6186F311884FF4FA610820FFF7D8FCEC
:102680002368A34208D1002383F311883B78002BF1
:10269000EBD1A5F81880ECE7E2689B6892689A4253
:1026A000F1D20548FEF754FB206E0024CC680008E8
:1026B00000180258000000242472000800000000E6
:1026C00008B5114BDC6804F12C05E36AA062AB424B
:1026D00008D194F8263073B10F20FFF769FC0B483E
:1026E000FEF736FB1A681846E262FEF711FFE36A4E
:1026F000AB42EED0F6E794F825309B07ECD1D4E955
:10270000043213605A60E7E7206E0024307200083C
:1027100070B5344B04468068DD68002841D0AA6853
:1027200083689A4210D990F824308260062B3DD0FD
:10273000072B22D043B90121D0E9003280F82410C0
:1027400013605A60FEF7E4FE234603E09968AA6826
:10275000914202D31B689C42F8D15A6806202B6034
:102760006A6015605D60AC62FFF722FCA368AB4253
:1027700035D1EB6BA34232D170BD866AD0E900320D
:1027800013605A60334603E099688268914202D32D
:102790001B689E42F8D15A68C0E900321060586048
:1027A000D2E7EB6BC4E90253EC6370BD866AD0E9F3
:1027B000003213605A60334603E0996882689142A0
:1027C00002D31B689E42F8D15A68036042601060D1
:1027D0005860B068AA6883689342A4D3B4E70248FB
:1027E000FEF7B6FA206E0024C87100080000000051
:1027F00070B51E4E04463268F368B242996829D11A
:102800000022A262A26891422AD21846FEF7F8FC82
:1028100001230546F46084F82430B6F888309B071D
:1028200005D529462046BDE87040FDF7D9BD90F892
:102830002430816ADB00D6F88C2043F00203C2E921
:1028400002411370FEF764FA29462046BDE8704045
:10285000FDF7C6BD92688A42D2D90548FEF778FADC
:102860002046BDE87040FEF753BE00BF206E002436
:10287000186E0008000000000000000000000000CA
:102880000EB42DE9F04F86B00FAB53F804BB5D4694
:102890000093029315F8011B002900F022820446E0
:1028A0004FF000090CE0236809F10109AB4620460E
:1028B000DB6898475D4615F8011B002900F0EA80A7
:1028C0002529F0D19BF801302D2B00F0CC8000227F
:1028D00028782B2800F0C3800027302800F0BB8028
:1028E00020262A2851D1687805F1020BDDF800C0B6
:1028F0002E285CF8043B60D04FF0000E00F0DF01A2
:102900004C296AD19BF80000002800F0C380A0F198
:1029100044010BF1010B342900F2C280DFE811F011
:10292000A101C000C000C000C000A101C000C000E3
:10293000C000C000C000D201B001C000C000C00093
:10294000C000CD01C000C000B001C000C000C00088
:10295000C000C000C000C000C000C000C0005701DF
:10296000A101C000C000C000C000A101C000C000A3
:10297000C000C000C000D201B001C000C0003901D9
:10298000C000CD01C000C000B0010135002800F03A
:102990008180002305E015F8010B01EB4C030028B2
:1029A00078D0A0F13001AB4603EB830CC9B2092902
:1029B000F1D92E28DDF800C09ED19BF80000002838
:1029C00068D02A2853D19BF801000BF1020B5CF868
:1029D00004EB00F0DF014C2994D0A0F14105A0F1F7
:1029E0004401EDB234295BD8DFE811F006015A004A
:1029F0005A005A005A0006015A005A005A005A005A
:102A00005A005D0139015A005A005A005A009C00D0
:102A10005A005A0039015A005A005A005A005A0006
:102A20005A005A005A005A005A00F10006015A0092
:102A30005A005A005A0006015A005A005A005A0019
:102A40005A005D0139015A005A00D3005A009C0017
:102A50005A005A00390101350646287841E768785E
:102A60000127013539E70BF10205012230E70BF1AF
:102A700001054FF0000EA0F13001AB460EEB8E08C1
:102A8000C9B209293FF63AAF15F8010B01EB480E20
:102A90000028F0D1484606B0BDE8F04F03B07047BB
:102AA00003F1FF38CDF800C08DF80C0028EAE87873
:102AB000002A40F09B80012B924603AD40F39A80A0
:102AC00029782B2918BF2D2902D1302E00F0E18062
:102AD000C8F10007236831462046DB689847013774
:102AE000F8D1C144B846BAF1000F0DDB0AF1010775
:102AF0002F442368204615F8011BDB689847BD4228
:102B0000F7D109F10109D144B8F1000F3FF4D2AE79
:102B10004546236831462046DB689847013DF8D199
:102B2000C144C7E60A270CF104010091DCF800104B
:102B30000DF1170C60460D46B1FBF7F107FB11587C
:102B400008F1300EBEF1390FC8BF08F1370EAF42A1
:102B500000F801EDEFD903ADACEB0007294610F802
:102B600001EB604501F801EBF9D105EB070AAAEB8F
:102B7000050AA3EB0A030AF1FF3A23EAE378002AE5
:102B8000B1D1002B9CDCBAF1000FFFF693AE90465A
:102B9000ACE7614651F8045B0091002D00F08580A0
:102BA0002978BEF1000F70D0002900F09080BEF1AE
:102BB000010000F18C800130AA46284401E08245E2
:102BC00003D01AF8011F0029F9D12026CFE761466A
:102BD00003F1FF38202651F8040B28EAE878C0B248
:102BE00000918DF80C00002A3FF465AF4FF0000A09
:102BF00003AD7BE7904679E76046192D50F8041B3A
:102C0000009030D9002933DB002F53D02B200DF159
:102C10000D0703AD8DF80C0007F10B0CDFF8CCE0CD
:102C200001936046AEFB01838846DB08B8F1090FCB
:102C300003EB830A1946A8EB4A0303F1300300F8BB
:102C4000013DEFDC019B791EACEB000810F801EBB5
:102C5000844501F801EFF9D107EB080A87E710274F
:102C600061E70CF10400DCF8001000900029CBDAD9
:102C70002D2049420DF10D0703AD8DF80C00CBE777
:102C80000CF104011027009150E701B347F6FE70E4
:102C900091E72368204609F101090135DB680AF153
:102CA000FF3A984714E708273DE7114DBEF1000FA2
:102CB000ECD07CE703AD2F46AEE70CF104010A2708
:102CC000009133E70CF10401082700912EE723EA75
:102CD000E37842B9002B7FF7EDAD20264FF0FF3AA5
:102CE000F6E68946D6E620260EE700BFCDCCCCCC52
:102CF000D468000800000000000000000000000090
:102D000000290ADC08B5302383F311880548002127
:102D1000FEF756FC0020FFF7D3FC034A0349FFF7F8
:102D2000AFBD00BF246C0024DC680008E468000824
:102D300000292EDC194A1A4930B5044683B0FFF742
:102D40009FFD184A18492046FFF79AFD174A18496F
:102D50002046FFF795FD174A17492046FFF790FDDB
:102D6000164A17492046FFF78BFD164A164920469A
:102D7000FFF786FD154D164A20461649FFF780FDE0
:102D8000154B164A204616490095FFF779FD03B00A
:102D900030BD144A1449FFF773BD00BFF86800083E
:102DA0000069000814690008286900083C690008E7
:102DB000486900085C690008686900087C690008C7
:102DC00094690008A8690008E86900084C6A0008CE
:102DD000FC690008106A0008246A0008286A0008D4
:102DE000346A0008F0680008E46800080000000089
:102DF000012903D0034A0449FFF742BD1268034981
:102E0000FFF73EBD586A0008E4680008686A0008D9
:102E1000002905DC4FF0804303495A6AFFF730BDB3
:102E2000024A0349FFF72CBD786A0008706A00085F
:102E3000E46800080000000000000000000000003E
:102E400010B50446074A0849FFF71AFD074A084922
:102E50002046FFF715FD2046064A0749BDE8104009
:102E6000FFF70EBD0076B010806A0008003B5808DE
:102E7000946A000840787D01A86A000800000000FC
:102E800038B50D46B0B1044628601149204603F01C
:102E9000A5FA215C0444222912D00D49204603F0F2
:102EA00081FA98B1421C00232A600370237823B171
:102EB000204638BD0C68002CE7D10024204638BDE0
:102EC0000134204603F006FA0028EBD12860EDE734
:102ED000BC6A0008000000000000000000000000C4
:102EE000A54A0023A54CD168D0E901922DE980487C
:102EF000D0F800B0A7B0CC6113708468C768A0494F
:102F0000029058461093B8460C940D97CDE90E33B5
:102F1000FFF7B6FC9B495846FFF7B2FCCDF81C9072
:102F2000A146954BDB6893F825305B0700F1F980EB
:102F300095495846FFF7A4FC16AE029B35461C681F
:102F4000236801220DF1230120469B689847002841
:102F500000F0DF809DF82310042900F0D6807F293F
:102F600018BF08290CBF0122002219D00D2900F03A
:102F7000E480092927D00E2900F0A580102900F04F
:102F8000BC801F292368DBD90DF197029542D7D267
:102F9000DB68204698479DF8233005F8013BCFE7D2
:102FA000B542CDD0236808212046013DDB68984713
:102FB000236820212046DB689847236808212046A3
:102FC000DB689847BCE70DF197039D42B8D26F4B81
:102FD0000DF1280A2A7031460A935046029B8DF85B
:102FE0002C201F695A680197039203F079FB3B4636
:102FF000504503F10403049300F06281DDF804A05E
:10300000634A0594634F14463846314603F068FB23
:10301000874208BF4AF8047B54F8087F002FF3D199
:10302000039A059C8AB113687BB103941F4614462A
:103030003846314603F054FB874208BF4AF8047B08
:1030400054F8087F002FF3D1039C0020019BCAF89D
:103050000000D3F800A0BAF1000F3FF471AFAA1B33
:103060005B680392002B00F06B819AF800C0BCF102
:10307000000F00F0BA816746AE46DDF804C0CDE926
:103080000598DDE903891A5CBA4206D14A463BB18C
:1030900052F8043F195CB942F9D0002B40F014817A
:1030A000404507DB0DF197039E4503D20EF8017BE7
:1030B000DCF800A001301AF80070002F00F03B810E
:1030C000DCF80430DFE7012231460CA8FEF7F8FEF9
:1030D000071E30D18DF85870022344222E49204615
:1030E000FFF7CEFB2D492046F519FFF7C9FB324605
:1030F0002B492046FFF7C4FB22E731460CA8FEF718
:10310000DFFE071E7FF71CAFE6E726492046FFF7E4
:10311000B7FB1B495846FFF7B3FB23495846FFF757
:10312000AFFB302383F3118820480021FEF748FAD3
:103130000020FFF7C5FACFDA02E720461049924691
:10314000AC1BFFF79DFB08F1FF339C4265DA631E61
:10315000F15CF21820290AD1002C03DC5DE0002B81
:1031600005DD013B12F8011D1C462029F7D0002C7B
:1031700053DDDDE90E372BE0206E0024C06A000825
:10318000906A0008C86A0008DC6A000868656C700C
:1031900078710008DC680008EC6A0008F86A00082A
:1031A000E46A0008E06A0008FC6A0008246C002455
:1031B000FA1A0132A8EB0202A2420FDC19F803202E
:1031C0004FF0010A134401339845D8BFA3EB08031D
:1031D0009F42EDDADA1B013AA242EFDDBAF1000FAD
:1031E00000D00E93A8EB070A781C0AF1FF3A484476
:1031F000A24540F3D58022463146FDF781FA631C93
:103200000022E4B23B44109209F807409845D8BF29
:10321000A3EB08030F9309F80320002709A9304600
:1032200011AC2F70FFF72CFE09A905460020FFF70F
:1032300027FE50B1042F3CD044F8040B09A900200C
:103240000137FFF71DFE0028F4D126AB03EB8703FF
:1032500043F8540C002D3FF464AE76492846FDF740
:10326000DFF8002840F0B080002F40F0C3807249A2
:103270005846FFF705FB714C714A724D2946584676
:10328000FFF7FEFA54F8082F002AF7D1079B5BB12D
:10329000079C226842B16B4D29465846FFF7F0FA69
:1032A00054F8082F002AF7D167495846FFF7E8FA83
:1032B00037E666495846FFF7E3FA0023159330E6F0
:1032C000DDF810A038609BE6DDE905983318002290
:1032D0001A7000283FF434AE019F02997A68D1F841
:1032E00000A00193002A67D057495046FFF7C8FA5B
:1032F0003A68019B72B101941F46554D049C00E051
:10330000043429465046FFF7BBFA2268002AF7D159
:10331000019C3B464C4950460193FFF7B1FA4D4999
:103320005046FFF7ADFA324650464B49FFF7A8FA30
:10333000019B1D4604E6DDE9059833183754CBE7B9
:103340005046FDF77DFA331802469D4250D2AF1B1E
:1033500029461AF807C001F801CB8B4215D90DF1A7
:10336000970C6145B3D2A7EB050EDDF804C001EB65
:103370000E0ADCF8007017F80A7001F8017B0DF1F5
:103380009707B942A3D28B42F1D80DF19707B94202
:103390009DD2202301320B700023B354B3189BE756
:1033A00052463146FDF7ACF9A4EB0A0206EB0A01DE
:1033B0004846FDF7A5F922E72A4650462649FFF779
:1033C0005FFA019B1D46BBE51C4C1D4802E054F80A
:1033D000080FA8B12946FDF723F80028F7D1636844
:1033E00011AA3946584698479BE58DF858C0A7E57D
:1033F0002946CEE70F4A58461849FFF741FA90E5AB
:10340000079B63B1186850B11C4602E054F8080FDE
:1034100028B12946FDF704F80028F7D1DFE72A464E
:103420000D495846FFF72CFA0D495846FFF728FA80
:1034300077E500BF1C6B0008246B0008787100085A
:10344000DC680008346B0008906A0008046B000810
:10345000E86A0008DC6A0008E46A0008E46800081A
:10346000386B0008000000000000000000000000B1
:10347000032900D070472DE9F047144600AF1068CB
:10348000E94602F023FE8246606802F01FFE804695
:10349000A068002402F01AFEADF5407D21462246C8
:1034A000C3B226465FFA88F80D465FFA8AFA1046DC
:1034B00068F3070463F3070663F3070168F3070083
:1034C0006AF307056AF3070263F30F2463F30F201F
:1034D00068F30F2568F30F226AF30F266AF30F21B2
:1034E00063F3174563F3174268F3174668F3174110
:1034F0006AF317446AF3174063F31F6663F31F61AF
:1035000068F31F6468F31F606AF31F656AF31F6244
:10351000E846CC466B461A60183343F8140C43F85F
:10352000101C43F80C5C43F8084C43F8046C6345EA
:10353000F1D108F1FF36002508F2FF28DFF860A07E
:10354000802416F801CF0AEB8500C5F5C05E002384
:1035500002E08E450B4612D044FA03F2591C12EADF
:103560000C0F0CBF01220422072B40F8042BF0D1D2
:10357000464508D001351D44B5F5C05FE1D1CD46C3
:10358000BD46BDE8F087074A3D231268107BD2E9AB
:10359000002183400B60136843F001031360EEE7E2
:1035A00050010024706700240000000000000000AB
:1035B00010B5BFF34F8FBFF36F8F1C480022C0F8C8
:1035C0005022BFF34F8FBFF36F8F436943F4003333
:1035D0004361BFF34F8FBFF36F8FC0F88420BFF3F9
:1035E0004F8FD0F8803043F6E074C3F34E3CC3F302
:1035F000C90E4FEA4C1C0CEA0401734641EA83727F
:10360000013BC0F860225A1CF8D1ACF1200C1CF12F
:10361000200FF0D1BFF34F8F436943F480334361F0
:10362000BFF34F8FBFF36F8F10BD00BF00ED00E001
:10363000704700BF00000000000000000000000014
:10364000FEE700BF000000000000000000000000D6
:1036500070B5134D05F1800455F8102C55E90301A0
:1036600088420DD2043A034652F8046F43F8046BC3
:103670008B42F9D34B1E1B1A23F003030433184467
:1036800055F8043C834207D9013B00211B1A23F063
:103690000302043202F0CCFD1035A542DCD170BD2E
:1036A0006C75000800000000000000000000000031
:1036B00038B51E4DB5F8883013F0040416D04FF01D
:1036C000B042D2F8883003F00103C2F8883023B149
:1036D000174A13680BB150689847B5F8883013F053
:1036E000040411D0BDE83840FDF772BA302383F3EB
:1036F00011880321D5F88C300E4A19709A60FDF7B5
:1037000007FB84F31188DAE7302383F3118804215F
:10371000D5F88C30074A19709A60FDF7F9FA84F3EE
:103720001188BDE83840FDF753BA00BF206E002471
:10373000A06D0024F87300080000000000000000E5
:1037400038B51E4DB5F8883013F0040416D04FF08C
:10375000B042D2F8883003F00203C2F8883023B1B7
:10376000174A93680BB1D0689847B5F8883013F0C2
:10377000040411D0BDE83840FDF72ABA302383F3A2
:1037800011880321D5F88C300E4A19709A60FDF724
:10379000BFFA84F31188DAE7302383F31188042118
:1037A000D5F88C30074A19709A60FDF7B1FA84F3A6
:1037B0001188BDE83840FDF70BBA00BF206E002429
:1037C000A06D0024EC730008000000000000000061
:1037D00038B51E4DB5F8883013F0040416D04FF0FC
:1037E000B042D2F8883003F00403C2F8883023B125
:1037F000174A13690BB150699847B5F8883013F030
:10380000040411D0BDE83840FDF7E2B9302383F35A
:1038100011880321D5F88C300E4A19709A60FDF793
:1038200077FA84F31188DAE7302383F311880421CF
:10383000D5F88C30074A19709A60FDF769FA84F35D
:103840001188BDE83840FDF7C3B900BF206E0024E1
:10385000A06D0024E07300080000000000000000DC
:1038600038B51E4DB5F8883013F0040416D04FF06B
:10387000B042D2F8883003F00803C2F8883023B190
:10388000174A93690BB1D0699847B5F8883013F09F
:10389000040411D0BDE83840FDF79AB9302383F312
:1038A00011880321D5F88C300E4A19709A60FDF703
:1038B0002FFA84F31188DAE7302383F31188042187
:1038C000D5F88C30074A19709A60FDF721FA84F315
:1038D0001188BDE83840FDF77BB900BF206E002499
:1038E000A06D0024D4730008000000000000000058
:1038F00038B51E4DB5F8883013F0040416D04FF0DB
:10390000B042D2F8883003F01003C2F8883023B1F7
:10391000174A136A0BB1506A9847B5F8883013F00C
:10392000040411D0BDE83840FDF752B9302383F3C9
:1039300011880321D5F88C300E4A19709A60FDF772
:10394000E7F984F31188DAE7302383F3118804213F
:10395000D5F88C30074A19709A60FDF7D9F984F3CD
:103960001188BDE83840FDF733B900BF206E002450
:10397000A06D0024C87300080000000000000000D3
:1039800038B52C4DB5F8883013F0040433D04FF01F
:10399000B043D3F8884004F47872C3F88820A306B3
:1039A00004D5254A936A0BB1D06A9847600604D5BE
:1039B000214A136B0BB1506B9847210604D51E4A60
:1039C000936B0BB1D06B9847E20504D51A4A136C80
:1039D0000BB1506C9847A30504D5174A936C0BB1F3
:1039E000D06C9847B5F8883013F0040411D0BDE8C6
:1039F0003840FDF7EDB8302383F311880321D5F863
:103A00008C300E4A19709A60FDF782F984F31188A0
:103A1000BDE7302383F311880421D5F88C30074AA1
:103A200019709A60FDF774F984F31188BDE8384085
:103A3000FDF7CEB8206E0024A06D0024BC730008F2
:103A400038B5304DB5F8883013F004043AD04FF053
:103A5000B043D3F8884004F47C42C3F88820620560
:103A600004D5294A136D0BB1506D9847230504D531
:103A7000254A936D0BB1D06D9847E00404D5224AD6
:103A8000136E0BB1506E9847A10404D51E4A936E75
:103A90000BB1D06E9847620404D51B4A136F0BB16B
:103AA000506F9847230404D5174A936F0BB1D06F1A
:103AB0009847B5F8883013F0040411D0BDE83840B9
:103AC000FDF786B8302383F311880321D5F88C30B5
:103AD0000E4A19709A60FDF71BF984F31188B6E756
:103AE000302383F311880421D5F88C30074A1970EC
:103AF0009A60FDF70DF984F31188BDE83840FDF7B1
:103B000067B800BF206E0024A06D0024B0730008C9
:103B10002DE9F0413A4EB6F8883013F0040460D035
:103B2000DFF8E08040F20F13D8F808502F68EC69F6
:103B30001C422C6219D0D8F804301B69ABB144F395
:103B40000001C4F3C002A00701F0040141EA021120
:103B500048BF41F00801620748BF41F02001E0057D
:103B6000284848BF41F040019847620601D57B06CE
:103B70002CD4F80610D5E1060ED5D8F804305B69D0
:103B80000BB120489847B6F8883013F004040CD0E5
:103B9000BDE8F041FDF71CB87A01F4D52305ECD45B
:103BA000B6F8883013F00404F2D1302383F311887F
:103BB0000421D6F88C30144A19709A60FDF7A8F8E1
:103BC00084F31188BDE8F041FDF702B8D8F804305D
:103BD00027F040025B682A60002BCAD0094898474A
:103BE000C7E7302383F311880321D6F88C30064AC7
:103BF00019709A60FDF78CF884F3118890E700BF84
:103C0000206E00247C6D0024A473000800000000D6
:103C10002DE9F0474F4DB5F8883013F0040416D065
:103C20004FF08049D9F81030D9F80C201340DAB29F
:103C30009B076FEA0202C9F8102016D4B5F8883045
:103C400013F004043AD0BDE8F047FCF7C1BF3023BD
:103C500083F311880321D5F88C303F4A19709A609C
:103C6000FDF756F884F31188DAE7302383F31188DF
:103C70003A4F4FF0000A4FF0300809E08AF31188FC
:103C8000D4E903312046984788F31188636933BB30
:103C9000D9F824002C69EE69A268811B914244D3B3
:103CA0001644D4E90010EE6101604860C4F800A039
:103CB0002B69BB42E2D1C9F80CA0DFE7302383F3C4
:103CC00011880421D5F88C30234A19709A60FDF7C9
:103CD0001FF884F31188BDE8F047FCF779BF4FF077
:103CE0008042516A8A1B93421CD32A69BA422BD064
:103CF00091688B4209D9A24202D122E0944220D09D
:103D000012685B1A91688B42F8D8A36091682260B0
:103D1000C91A536863601C604FF0FF33C2E9014168
:103D2000AB61A8E70E48FDF713F8BC4205D0121AA4
:103D3000E8619119A160FDF733FA002383F311883C
:103D40007CE70848FDF704F85B1A20469A19FDF74E
:103D50009FFBF2E7206E002498730008306E002469
:103D60008C7300087C730008000000000000000055
:103D700070B52C4DB5F8883013F0040433D02A4EBA
:103D8000F3691C69DA681440E2B2D2431A61A307EE
:103D900004D573681B690BB130469847600704D59A
:103DA00073689B690BB120489847210704D5736855
:103DB0001B6A0BB11C489847E20604D573689B6ADE
:103DC0000BB119489847E30704D573689B680BB19A
:103DD00015489847B5F8883013F0040411D0BDE8B1
:103DE0007040FCF7F5BE302383F311880321D5F82A
:103DF0008C300E4A19709A60FCF78AFF84F31188A0
:103E0000BDE7302383F311880421D5F88C30074AAD
:103E100019709A60FCF77CFF84F31188BDE870404C
:103E2000FCF7D6BE206E00245C6D00247073000881
:103E300038B51C4DB5F8883013F0040412D01A4B75
:103E40001A481968426801F03D0199600AB180681A
:103E50009047B5F8883013F0040411D0BDE838401D
:103E6000FCF7B6BE302383F311880321D5F88C30DC
:103E70000F4A19709A60FCF74BFF84F31188DEE754
:103E8000302383F311880421D5F88C30084A197047
:103E90009A60FCF73DFF84F31188BDE83840FCF7D9
:103EA00097BE00BF206E002400000240D86C0024A2
:103EB0006473000800000000000000000000000023
:103EC00038B51D4DB5F8883013F0040414D01B4BE1
:103ED0001B4A1968890901F03D0188019860D3687F
:103EE0000BB110699847B5F8883013F0040411D06D
:103EF000BDE83840FCF76CBE302383F31188032102
:103F0000D5F88C300F4A19709A60FCF701FF84F3E2
:103F10001188DCE7302383F311880421D5F88C3035
:103F2000084A19709A60FCF7F3FE84F31188BDE823
:103F30003840FCF74DBE00BF206E00240000024058
:103F4000D86C002458730008000000000000000036
:103F500038B51D4DB5F8883013F0040414D01B4B50
:103F60001B4A1968090C01F03D0108049860536967
:103F70000BB190699847B5F8883013F0040411D05C
:103F8000BDE83840FCF724BE302383F311880321B9
:103F9000D5F88C300F4A19709A60FCF7B9FE84F39B
:103FA0001188DCE7302383F311880421D5F88C30A5
:103FB000084A19709A60FCF7ABFE84F31188BDE8DB
:103FC0003840FCF705BE00BF206E00240000024010
:103FD000D86C00244C7300080000000000000000B2
:103FE00038B51D4DB5F8883013F0040414D01B4BC0
:103FF0001B4A1968890D01F03D0188059860D36955
:104000000BB1106A9847B5F8883013F0040411D04A
:10401000BDE83840FCF7DCBD302383F31188032171
:10402000D5F88C300F4A19709A60FCF771FE84F352
:104030001188DCE7302383F311880421D5F88C3014
:10404000084A19709A60FCF763FE84F31188BDE892
:104050003840FCF7BDBD00BF206E002400000240C8
:10406000D86C00244073000800000000000000002D
:1040700038B51C4DB5F8883013F0040412D01A4B33
:104080001A485968426A01F03D01D9600AB1806A54
:104090009047B5F8883013F0040411D0BDE83840DB
:1040A000FCF796BD302383F311880321D5F88C30BB
:1040B0000F4A19709A60FCF72BFE84F31188DEE733
:1040C000302383F311880421D5F88C30084A197005
:1040D0009A60FCF71DFE84F31188BDE83840FCF7B8
:1040E00077BD00BF206E002400000240D86C002481
:1040F0003473000800000000000000000000000011
:1041000038B51D4DB5F8883013F0040414D01B4B9E
:104110001B4A5968890901F03D018801D860D36ABA
:104120000BB1106B9847B5F8883013F0040411D028
:10413000BDE83840FCF74CBD302383F311880321E0
:10414000D5F88C300F4A19709A60FCF7E1FD84F3C2
:104150001188DCE7302383F311880421D5F88C30F3
:10416000084A19709A60FCF7D3FD84F31188BDE802
:104170003840FCF72DBD00BF206E00240000024037
:10418000D86C002428730008000000000000000024
:1041900038B51D4DB5F8883013F0040414D01B4B0E
:1041A0001B4A5968090C01F03D010804D860536BA3
:1041B0000BB1906B9847B5F8883013F0040411D018
:1041C000BDE83840FCF704BD302383F31188032198
:1041D000D5F88C300F4A19709A60FCF799FD84F37A
:1041E0001188DCE7302383F311880421D5F88C3063
:1041F000084A19709A60FCF78BFD84F31188BDE8BA
:104200003840FCF7E5BC00BF206E002400000240EF
:10421000D86C00241C73000800000000000000009F
:1042200038B51D4DB5F8883013F0040414D01B4B7D
:104230001B4A5968890D01F03D018805D860D36B90
:104240000BB1106C9847B5F8883013F0040411D006
:10425000BDE83840FCF7BCBC302383F31188032150
:10426000D5F88C300F4A19709A60FCF751FD84F331
:104270001188DCE7302383F311880421D5F88C30D2
:10428000084A19709A60FCF743FD84F31188BDE871
:104290003840FCF79DBC00BF206E002400000240A7
:1042A000D86C00241073000800000000000000001B
:1042B00038B51C4DB5F8883013F0040412D01A4BF1
:1042C0001A481968426C01F03D0199600AB1806C8E
:1042D0009047B5F8883013F0040411D0BDE8384099
:1042E000FCF776BC302383F311880321D5F88C309A
:1042F0000F4A19709A60FCF70BFD84F31188DEE712
:10430000302383F311880421D5F88C30084A1970C2
:104310009A60FCF7FDFC84F31188BDE83840FCF797
:1043200057BC00BF206E002400040240D86C00245B
:1043300004730008000000000000000000000000FE
:1043400038B51D4DB5F8883013F0040414D01B4B5C
:104350001B4A1968890901F03D0188019860D36CF6
:104360000BB1106D9847B5F8883013F0040411D0E4
:10437000BDE83840FCF72CBC302383F311880321BF
:10438000D5F88C300F4A19709A60FCF7C1FC84F3A1
:104390001188DCE7302383F311880421D5F88C30B1
:1043A000084A19709A60FCF7B3FC84F31188BDE8E1
:1043B0003840FCF70DBC00BF206E00240004024012
:1043C000D86C0024F8720008000000000000000013
:1043D00038B51D4DB5F8883013F0040414D01B4BCC
:1043E0001B4A1968090C01F03D0108049860536DDF
:1043F0000BB1906D9847B5F8883013F0040411D0D4
:10440000BDE83840FCF7E4BB302383F31188032177
:10441000D5F88C300F4A19709A60FCF779FC84F358
:104420001188DCE7302383F311880421D5F88C3020
:10443000084A19709A60FCF76BFC84F31188BDE898
:104440003840FCF7C5BB00BF206E002400040240CA
:10445000D86C0024EC72000800000000000000008E
:1044600038B51D4DB5F8883013F0040414D01B4B3B
:104470001B4A1968890D01F03D0188059860D36DCC
:104480000BB1106E9847B5F8883013F0040411D0C2
:10449000BDE83840FCF79CBB302383F3118803212F
:1044A000D5F88C300F4A19709A60FCF731FC84F310
:1044B0001188DCE7302383F311880421D5F88C3090
:1044C000084A19709A60FCF723FC84F31188BDE850
:1044D0003840FCF77DBB00BF206E00240004024082
:1044E000D86C0024E072000800000000000000000A
:1044F00038B51C4DB5F8883013F0040412D01A4BAF
:104500001A485968426E01F03D01D9600AB1806EC7
:104510009047B5F8883013F0040411D0BDE8384056
:10452000FCF756BB302383F311880321D5F88C3078
:104530000F4A19709A60FCF7EBFB84F31188DEE7F1
:10454000302383F311880421D5F88C30084A197080
:104550009A60FCF7DDFB84F31188BDE83840FCF776
:1045600037BB00BF206E002400040240D86C00243A
:10457000D4720008000000000000000000000000ED
:1045800038B51D4DB5F8883013F0040414D01B4B1A
:104590001B4A5968890901F03D018801D860D36E32
:1045A0000BB1106F9847B5F8883013F0040411D0A0
:1045B000BDE83840FCF70CBB302383F3118803219E
:1045C000D5F88C300F4A19709A60FCF7A1FB84F380
:1045D0001188DCE7302383F311880421D5F88C306F
:1045E000084A19709A60FCF793FB84F31188BDE8C0
:1045F0003840FCF7EDBA00BF206E002400040240F2
:10460000D86C0024C8720008000000000000000000
:1046100038B51D4DB5F8883013F0040414D01B4B89
:104620001B4A5968090C01F03D010804D860536F1A
:104630000BB1906F9847B5F8883013F0040411D08F
:10464000BDE83840FCF7C4BA302383F31188032156
:10465000D5F88C300F4A19709A60FCF759FB84F337
:104660001188DCE7302383F311880421D5F88C30DE
:10467000084A19709A60FCF74BFB84F31188BDE877
:104680003840FCF7A5BA00BF206E002400040240A9
:10469000D86C0024BC72000800000000000000007C
:1046A00038B51D4DB5F8883013F0040415D01B4BF8
:1046B0001B4A5968890D01F03D018805D860D36F08
:1046C00013B1D2F880009847B5F8883013F004048D
:1046D00011D0BDE83840FCF77BBA302383F3118852
:1046E0000321D5F88C300F4A19709A60FCF710FB43
:1046F00084F31188DBE7302383F311880421D5F894
:104700008C30084A19709A60FCF702FB84F3118818
:10471000BDE83840FCF75CBA206E0024000402407B
:10472000D86C0024B07200080000000000000000F7
:104730002DE9F84FDFF87482B8F8883013F00404DC
:1047400000F0E6809A4ED6F890406769A3691F4052
:1047500017F48059676140F05681002FC0F2AD8098
:104760003B0500F1C380BD040CD5D4F8083813F024
:10477000060FE36823F470530CBF43F4105343F463
:10478000A053E36038074DD4F90253D4BA0200F1C4
:104790000781FD0600F1DB803B03D4F818481AD5E9
:1047A000E60300F1E381A50300F1E681600300F177
:1047B000E981210300F1EC81E20200F1EF81A30223
:1047C00000F1F281660200F1F581250200F1CA8153
:1047D000E00100F1928179031AD5E20700F10A8223
:1047E000A30700F10382670700F1FC81260700F1AF
:1047F000F581E50600F1EE81A00600F1E781610692
:1048000000F1E081220600F1D981E30500F17C810D
:10481000B8F8883013F0040400F08880BDE8F84F41
:10482000FCF7D6B97368DB68002BADD060489847B9
:10483000F902ABD50021D6F890A00D4607E001356E
:10484000D6F89430EDB29B689D4229469ED80AEB7B
:104850004512D2F8003903F44023B3F5802FEED18E
:10486000D2F80039002BEADAD2F8003943F090434D
:10487000C2F80039D2F80039002BFBDB8901D6F8E9
:10488000902041F02001116113699B06FCD4494A34
:10489000516853685B1A112BFBD906EB8503012184
:1048A000DB68A9409A68338923EA01033381002A2F
:1048B000C5D029463E489047C1E7D4F8003E9A0744
:1048C00040F01481D4F8043823F00103C4F804380C
:1048D00096F88C30337073681B68002B3FF440AF40
:1048E0000521334898473B057FF53DAFD6E92401C4
:1048F000FCF75EFA3378052286F88C3073683270E4
:104900001B6813B104212A4898470023B3602AE7A3
:10491000302383F311880321D8F88C30264A19708C
:104920009A60FCF7F5F984F311880BE7302383F3E1
:1049300011880421D8F88C301F4A19709A60FCF74E
:10494000E7F984F31188BDE8F84FFCF741B9D6F8D0
:1049500090502B6A03F4F012C3F30A1103F00F0313
:10496000B2F5802F00F0D480B2F5402F7FF414AF61
:1049700006EB8303DB681A6A00293FF40DAF05F5E7
:1049800080550023980701D1D5F80090072B03D854
:1049900002F8019B4FEA192901339942F2D1FBE653
:1049A000D6F890A000254FF0010B0FE0206E0024F8
:1049B0003C6C0024001000E0A47200080135D6F819
:1049C0009430EDB29B689D423FF6E3AE0AEB451290
:1049D000D2F8003B03F44023B3F5802FEED1D2F898
:1049E000003B002BEADA06EB85030BFA05F1DB68E6
:1049F000DA68738923EA01037381002ADED029462D
:104A000080489047DAE700250223242206F10C00B3
:104A100029463370C6F88850B56001F009FC2023A0
:104A200086F870502361236913F02003FBD1764987
:104A300048684A68121A112AFBD90022D6F8945005
:104A40004FF000604FF0FF31C4F834284FF00112EE
:104A5000AF68C4F81C2804EB43129F4203F1010322
:104A6000C2F80009C2F8000BC2F80819C2F8081B06
:104A7000F1D128681023606223612369D906FCD430
:104A8000614A516853685B1A112BFBD9D4F800387E
:104A90006A6823F4FE63C4F800385C4BA1690B43D9
:104AA0005B49A3610923F1604FF0C041C4F810389D
:104AB000C4F81438C4F8101B0021564BC4F8003B4E
:104AC000C4F81019C4F8003900F110039342C6F875
:104AD000983000F29380736840F480101B68A062E5
:104AE000002B3FF495AE4748984791E6D4F8003E36
:104AF00023F00303C4F8003EE4E60820FCF7B8F80E
:104B000079037FF585AE68E60820FCF731FC7FE687
:104B1000981C06EB80035B68D3F818E0DEE90023FD
:104B2000A2EB030CDEF80820B9B105F5805500238F
:104B300013F0030F01D1D5F800909C4503D902F87A
:104B4000019B4FEA192901339942F1D106EB800606
:104B50007368D3F818E0DEE901320A441944CEE95B
:104B6000011219E60720FCF783F831E60020FCF774
:104B70007FF8A5037FF51AAE0120FCF779F86003F2
:104B80007FF517AE0220FCF773F821037FF514AE12
:104B90000320FCF76DF8E2027FF511AE0420FCF76C
:104BA00067F8A3027FF50EAE0520FCF761F86602F8
:104BB0007FF50BAE0620FCF75BF806E60720FCF756
:104BC000D7FB22E60620FCF7D3FB1BE60520FCF70B
:104BD000CFFB14E60420FCF7CBFB0DE60320FCF72B
:104BE000C7FB06E60220FCF7C3FBFFE50120FCF74C
:104BF000BFFBF8E50020FCF7BBFBF1E50648FCF73E
:104C0000A7F800BF3C6C0024001000E010000C006E
:104C1000807200084080001040740008000000000E
:104C2000AC4940F2FF6000234FF04C6CD1F8882073
:104C30000243F0B4C1F888206FF47F55D1F8882082
:104C40004FF6FF76A44C4FF055371440A34AC1F8F5
:104C50008840D1F88840D1F8E0400443C1F8E040F2
:104C6000D1F8084104439E48C1F80841D1F80841F1
:104C70009C4C53609560D4604FF6FE749A4D54611D
:104C80009A4C14629A4C54629A4C14609A4C436049
:104C9000846004F1156404F5AA2404F29144C4600C
:104CA0004BF6FE7444614FF4300403624462934C4B
:104CB000046040F60C70C2F80438C2F80808904846
:104CC000904CC2F80C089048C2F81468C2F820084A
:104CD00040F60820C2F82438C2F8000802F5406205
:104CE0004FF4806050604FF4702090608748D0602F
:104CF00077205661136250624FF4D01010600C2080
:104D0000C2F80434C2F808048148C2F80C044FF613
:104D1000FD70C2F814040420C2F82034C2F8243410
:104D2000C2F80004C2F80438C2F80838C2F80C7897
:104D3000C2F81468C2F82038C2F82438C2F8003823
:104D400002F5E0526B60C5F808C00CF1884C714860
:104D50000CF1551C0CF5A85CC5F80CC04FF67F7C17
:104D6000C5F814C0DFF8B0C12B62C5F824C0DFF865
:104D7000ACC1C5F800C00F256360A560684DE56053
:104D8000666123626362236043608360C76046613B
:104D9000036243620360022053609360D7605661F0
:104DA00013625362136002F50052D1F8F4300343EA
:104DB000C1F8F430D1F81C310343C1F81C31D1F8EB
:104DC0001C31D06053689B04FCD50121554C002355
:104DD0005548146091605549D060136193618B69A7
:104DE0009F04FCD50B683B4A43F480730B60136F40
:104DF00003F44073B3F5807F04D04FF48031002377
:104E000011671367334A136F43F019031367136F66
:104E10009E07FCD513682F4943F0010313600B680C
:104E20005D07FCD500232B4A0B61136913F038038F
:104E3000FBD101204FF080414FF0005410605160D1
:104E40003B483C49D4605367D062116113682148E4
:104E500043F48033136003689C03FCD503681D4949
:104E600043F4805303600B689804FCD50B68194A1F
:104E700043F080030B601368D905FCD5536F1549C7
:104E800043F0010353674B6F9A07FCD52A4A002071
:104E90002A4B2B4C8C6248630A63CB620B680D4A29
:104EA00043F080730B6013689B01FCD548244FF4DA
:104EB00088614020002394614FF44014D1614FF089
:104EC000005110623120D1641E4913655465936509
:104ED0003AE000BF0044025800F9FFFF000002580A
:104EE000000402585055004000180258B20B001040
:104EF0000AAA0A002A80A2AAC300003C8100001866
:104F000051505501001C0258B000BB00555540558A
:104F1000515555550024025800B0B000004080089B
:104F20005055555500C000F00200000100480258DD
:104F30000000FF01008890086F0201019909070035
:104F4000525050000020005208600B6803F00F031D
:104F5000012BFAD1134A136943F003031361136958
:104F600003F03803182BFAD1D2F8DC3043F00053A9
:104F7000C2F8DC30D2F8043143F00053C2F80431F7
:104F8000D2F80431D2F8DC3043F08043C2F8DC3090
:104F9000D2F8043143F08043F0BCC2F80431D2F8B7
:104FA0000431704700440258000000000000000077
:104FB00070B5154C01222568E0682B685C6085F8A7
:104FC00024202360E560FCF71BF9B4F8883006461E
:104FD0009B0705D531462846BDE87040FBF700BA6F
:104FE00090F82430816ADB00D4F88C2043F002036F
:104FF000C2E902511370FBF78BFE31462846BDE82B
:105000007040FBF7EDB900BF206E002400000000E7
:1050100038B5234D3023EC6883F31188E36B002B04
:1050200030D09A68A2422DD1834201462AD102682B
:10503000C3688242E36328D0206C4BB11A68934264
:1050400003D09268904238BF1046DB68002BF5D140
:10505000A0600868C26B03680B605960C1E9020276
:10506000C163FCF755FA2A68EB6892689B689A421C
:1050700004D9FFF79DFF2B68AB4209D1002383F3CE
:10508000118838BD0748FBF763FE00239360F2E701
:10509000EA689B6892689A42F0D20348FBF758FE90
:1050A000206E0024BC7100080C7200080000000093
:1050B0002DE9F041494E3168D0E90432B142136024
:1050C0005A606FD1002383F3118890F8253003F0E4
:1050D0000303012B11D0022B0DD1436C3021026A46
:1050E00081F3118831681868B14210601A6064D188
:1050F000002383F31188BDE8F081076A57E9025362
:10510000A7F10804073305F10C080435DB0847F85C
:10511000043C302383F311884046FDF7F9FA3368E5
:10512000B34252D1002383F311882B469C4205D20F
:105130009D420DD01A6813469C42F9D35A68013239
:1051400003EBC202944235D39D4201D09C42F1D977
:105150001A680AB19442EED247F8082C57F8042C8A
:105160001C60013257F8081C04EBC200814211D0C8
:1051700059684A1C03EBC202944204D04046BDE881
:10518000F041FFF745BF57E90202013218600A44B7
:105190005A60F3E7486810440A6847F8040C47F877
:1051A000082CE5E7F2688B6892689A428AD20C482C
:1051B000FBF7CEFD0B48FBF7CBFDF2688B689268DE
:1051C0009A4295D20848FBF7C3FDF2689B68926843
:1051D0009A42A7D20548FBF7BBFD00BF206E002412
:1051E0002472000818720008007200080C7200088F
:1051F000302310B583F31188214A0369934227D0E5
:105200009A7DA3F11004FF2A2FD001329A751D4A0E
:10521000136893421ED1002383F31188302383F354
:10522000118890F82630EBB1013B80F82630436AB4
:1052300003F0FF130F2B07D01368934218D10023FC
:1052400083F31188204610BDFFF732FF204610BDC2
:105250000024DCE7D1689B6889689942DBD20A4860
:10526000FBF776FD0948FBF773FD0948FBF770FD76
:10527000D2689B6892689A42E1D20648FBF768FDC3
:10528000486E0024206E0024D4710008E0710008EC
:10529000F071000824720008000000000000000007
:1052A000002940DC26492DE9F04387B00646FDF78A
:1052B000E7FA302383F31188224B9A6A1868917DAC
:1052C000A2F11004984201F1010191752FD1002340
:1052D00083F31188DFF87090DFF870801C4F94F82A
:1052E000243094F8265059F823E0013D236AD4E98C
:1052F0000621D4E9020C0029126BCDF800C008BFCA
:105300004146CDE9030E059130463946CDE90145C8
:10531000FDF7B6FA2046FFF76BFF04460028DED102
:1053200007B0BDE8F0830B4A0B49FDF7A9BADA686C
:10533000836892689A42CAD20848FBF709FD00BF09
:10534000486B0008206E0024387100083C6B000890
:105350008C6B0008406B0008E4680008D4710008FA
:1053600000293ADCF8B50646302383F31188234838
:10537000FDF7CEF9224B1A689A4236D1002484F305
:105380001188204B5B6863B3224627460137D3E977
:1053900000318C420A4438BF0C46002BF6D1D500B0
:1053A000E4001648FFF734FE174B18493046D3E99E
:1053B0000032D21AFDF764FA3A4615493046FDF735
:1053C0005FFA2A4613493046FDF75AFA224630461C
:1053D0001149BDE8F840FDF753BA104A1049FDF7EE
:1053E0004FBA1C461D461F46DBE7D96893688A689A
:1053F0009A42C3D20B48FBF7ABFC00BF146C0024ED
:10540000206E0024086C0024286C0024BC6B00086B
:10541000DC6B0008F46B0008146C0008B86B000823
:10542000E46800080C7200080000000000000000A2
:1054300008B5302383F31188FDF742F9000000001E
:10544000EFF30983203383F30988002383F3118862
:10545000704700BF000000000000000000000000D6
:10546000CC4A00214FF0FF33CB4CD2F88000CB4D1B
:10547000DFF82C93DFF82CA32DE9804889B0C2F81F
:105480008030D2F88000C2F88010D2F88000D2F8C4
:105490008400C2F88430D2F88400C2F88410D2F8B4
:1054A0008400D06F2043D067D46FBF482C40D467AE
:1054B000D46FD2F88840204340F2FF64C2F88800DD
:1054C000D2F888002040C2F88800D2F88800D2F8CC
:1054D0009000C2F89030D2F89000C2F89010D2F844
:1054E0009000D2F89400C2F89430D2F89400C2F838
:1054F0009410D2F89400D2F89800C2F89830D2F8FC
:105500009800C2F89810D2F89800D2F88C00C2F82F
:105510008C30D2F88C00C2F88C10D2F88C00D2F803
:105520009C004846C2F89C300B46D2F89C40C2F81A
:105530009C10D2F89C200A4640F8041B5AF823100D
:105540000A6040F813200433402BF7D14FF0FF32AC
:1055500096494FF480704FF400748A60CA60C1F8B5
:105560000824C1F80C246021914A82F80613C2F87D
:1055700080311360802382F80713C2F880311360F2
:1055800082F80813C2F88001106082F80913C2F88B
:10559000804114604FF4806482F80A13C2F880419D
:1055A00014604FF4000482F81713C2F880411460AD
:1055B000002482F828139021C2F8840150604FF033
:1055C000805082F87A134FF080617A4BC2F88C11C8
:1055D000D160702182F81C13C2F88001106082F83B
:1055E00032134FF48021C2F884115160C02182F837
:1055F00025132021C2F88411516003F18002C3E910
:10560000004408339A42FAD16B4B06226B4D0127B6
:105610006B4E4FF0040B00211F8006F130009C7090
:105620005C606C602F70EC602C763770746085F86D
:1056300010B0DFF89081C3E90422634AEA6102F501
:1056400082329A60614ADA604022C3E9064400F07F
:10565000EFFD504AB4604FF08043D2F8E8105C4848
:105660003943C2F8E810D2F810113943C2F81011CA
:10567000D2F81021C26B57493A43C2634FF0FF3250
:10568000C6F890105449C8F80840C6F8941043F280
:10569000AF619962DA629C615C63DC605C605F614F
:1056A0001F60002388F800700594CDE902240022D1
:1056B000CDE9062302A8FBF74BFAFBF751FABBF141
:1056C000010BF7D1454F3020454B07F10C024549FE
:1056D000454CC3F808B0C3F814B0C3F82CB0C7F8F1
:1056E00014B0C8F80440C4F830B0C7E9032204225B
:1056F000DA615A633D4A1A629A63029AC8F808202E
:105700003B4A0A603B4A4A603B4A3A6003F1100256
:105710001A6114229A6103F124025A6203F12802E9
:105720009A621C221A6303F13C02DA6303F140021D
:105730001A6403F14402C3E900335A642F4BC7E9EA
:1057400001BBA36380F3118862B62D4B4FF6FF0EA9
:10575000C4F834B0C4F81CB02A492B4AC4E9014B40
:10576000D3F80CC00CEA0E0C4CEA0101D960D3F856
:10577000FC1041F08071C3F8FC102449C2F8B01F3E
:10578000116841F00101116020225946DA7783F84F
:1057900022003DE000440258FFEFFF7F0010008030
:1057A000D86C0024E46E000800F9FFFF00000240FE
:1057B00000E100E0A06D00247C6D00245C6D0024FD
:1057C0003C6C0024306C0024000C0040801D2C0434
:1057D0000010005C00000440286E0008086C0024E3
:1057E000B8650024286C0024206E0024B10B00084A
:1057F000E877002400000524611200086C6E0008A0
:1058000000ED00E00003FA05001000E055CEACC545
:105810004FF0804324605A6A04F11003C4E9043352
:105820004FF0FF331046A36103F50103C4F888303D
:1058300004F19003C4F88C305B46C4E90801C4F855
:1058400084B004EB0311013391F89020802B22F0F7
:10585000070281F89020F4D1636402A8E367B24B99
:10586000DFF8C8B2039303F59873646504930023CB
:10587000C4E91D33E3650793012384F86230A4F87B
:10588000603005930BF12403C4E90A330BF14403A0
:10589000C4E91B33A64BA3650BF14003A3660BF1D0
:1058A0001403E360A34B0293A34BC4E913BB069319
:1058B000FBF706F9FBF72CFE022388F8003023687B
:1058C000A34240F09483002282F311889B4B03F1A2
:1058D0000C0019469A611B649B67C3E903004FF4EF
:1058E00082709862186603F14400C3E90D22C3E98F
:1058F0001B22C3E9110003F5217291485A6241F855
:10590000040B9A6659608F49C3E915220122D963B5
:1059100003F28C411A721A7583F84C2003F17C0251
:10592000D9651A638849C3E90722022259673021E1
:10593000DA621A655A6681F31188197A01390129E8
:1059400000F252831A72814A336333657363C3F87A
:105950008C242368A34240F05383002383F31188EF
:10596000D6F890203021D2F8043843F00203C2F870
:10597000043881F3118843F698210820FCF758FB7E
:105980002368A34240F045834FF0000888F3118854
:10599000302383F3118833785A1E012A00F24083A2
:1059A0006B4A41466B4872602422019300F040FC30
:1059B000019B012B00F0E080022333702368A34297
:1059C00040F03D83002282F31188634BD6F890109B
:1059D0001B60D1F8043823F00203C1F804383023E7
:1059E00083F31188D9F8001011F0010300F06082F0
:1059F0001346012004E000FA03F2114200F059823C
:105A00000133082BF7D100232268A24240F00E8315
:105A1000002282F31188DFF844C1E9699E6801F130
:105A20003400CCF8003019683B2333604C4B88605D
:105A3000CB6041F632034B604A4B0B60302383F35B
:105A4000118829784B1E012B00F2ED82464B01296B
:105A5000EA606B604FF00503AB60EB6900F06182B8
:105A60001A60297C5A6304299A63DA631A6401D99B
:105A70009A65DA65002268693C4E5A62B0FBF6F21C
:105A8000511EB1F5803F80F0908206FB02F29042F9
:105A900040F08B829962002201210426287EDE627A
:105AA0005A60196259611A614FF48072DA6010B15C
:105AB0004FF400425A64852230261A6002232B706C
:105AC000FBF7E6F986F311882B78022B40F0C782AA
:105AD000EB6843F00103EB60EB6900255D63FBF7C6
:105AE000D7F9294646F2C8021D4800F0A1FB86F30B
:105AF0001188A06A2268837D1038A24203F1010355
